:0300000002055F97
:0C055F00787FE4F6D8FD75811302033CA0
:0A056B00EF1F70011E144E70F722FE
:10047200E4FDD2B77F10FE12056BC2B77FA07E00EB
:1004820012056BD2B77F1C7E0012056BA2B7E43354
:08049200FD7F287E0002056BCE
:0204F800AD074E
:1004FA007B08C2B7ED1392B77F0A7E0012056BD252
:07050A00B7EDC313FDDBEBAD
:0105110022C7
:1004DC007C08C2B7EDC313FDD2B730B70343058018
:0B04EC007F087E0012056BDCE9AF0505
:0104F70022E2
:1003B500E4FFFEF50EF50DF50CF50B1204727FCC7E
:1003C5001204F87F441204F81204727FCC1204F868
:1003D5007FBE1204F81204DCAB071204DCEFFEEB5F
:1003E500FFFDAC06E4120206E4FBFA7980783D12C3
:1003F50000FB8F0E8E0D8D0C8C0BE4FFFE7D207C9B
:1004050041AB0EAA0DA90CA80B1200FBE4FBFAF9EF
:08041500783F12000A12023FB9
:01041D0022BC
:10033C0012041E1204721203B58E128F137C007DF0
:10034C00641202D98F08E5082430FB7D017F081266
:10035C000552AE12AF137C007D0A1202D9E5087566
:10036C00F00AA4FEC3EF9EF5092430FB7D017F0942
:10037C001205527B2E7D017F0A120552E50875F09D
:10038C0064A4FEC3E5139EFFE50975F00AA4FEC341
:10039C00EF9EF50A2430FB7D017F0B1205527B4347
:0903AC007D017F0C120552808DC9
:10041E007F147E001204A07F3812052812049C7FE0
:10042E000C12052812049C7F0612052812049C7FCC
:0B043E00011205287F287E000204BE8A
:100528008F0D12049CC2A6C2A5850D8012049C12D0
:05053800049AC2A72295
:10053D008F0C12049CD2A6C2A5850C8012049C12AD
:05054D00049AC2A72280
:10051200EFBD0106247FF50C800424BFF50C120404
:060522009CAF0C0205284D
:0D0552008B0B12051212049CAF0B02053D2D
:100449008B0F8A10891112051212049CAB0FAA1086
:10045900A9111202C0FF601012053D74012511F5A2
:0904690011E43510F51080E422C5
:06049A00D2A77F057E00E1
:1004A000D3EF9400EE940040147D027C00ED1D70AB
:0D04B000011CED4C70F7EF1F70E61E80E39D
:0104BD00221C
:1004BE00D3EF9400EE940040147D167C00ED1D7079
:0D04CE00011CED4C70F7EF1F70E61E80E37F
:0104DB0022FE
:100003000202ABE86480F8E933E83360110460F07E
:10001300ED33EC337009E8FCE9FDEAFEEBFF220463
:1000230060DED3EB9FEA9EE99DE8C2E78CF0C2F75E
:1000330095F0400CE8CCF8E9CDF9EACEFAEBCFFB2A
:1000430012027685D0F05804700320D5B3E804700B
:10005300075002B2D50202B592D5EC0460F7E4CCA6
:10006300C0E0C398F8603B94186008400DD0E0FBF3
:1000730002028DE4FBFAC9FC8028E830E406E4C9F7
:10008300FBE4CAFCE830E305E4C9CACBFCE8540747
:100093006010F8C3E913F9EA13FAEB13FBEC13FC52
:1000A300D8F130F52FC3E49CFCEF9BFFEE9AFEEDF5
:1000B30099FDD0E0FBEF4E4D4C701222DB030202A0
:1000C300B2EC2CFCEF33FFEE33FEED33FDED30E706
:1000D300EB02028DEF2BFFEE3AFEED39FDD0E0FB94
:1000E30050130BBB00030202B5ED13FDEE13FEEF3D
:0800F30013FFEC13FC02028D67
:1000FB00EC4D6011E8497017ED33EC3304600DE4FF
:10010B00FCFFFEFD22E933E8330470F80202AB1268
:10011B00027658046009E4CC248150062850090269
:10012B0002B52840030202B2C0E0EB4A7044B9802A
:10013B0006D0E0FB0202A1EF4E701CBD8008EBFF66
:10014B00EAFEE9FD80EBE98DF0A4FEE5F00201E4A7
:10015B00E9CDF9EAFEEBFFEF89F0A4FCE5F0CE89DF
:10016B00F0A42EFFE435F0CD89F0A42DFEE435F09C
:10017B008067EF4E7005BD80D780C3EF8BF0A4ACCA
:10018B00F0EE8BF0A42CFCE435F0F8EF8AF0A42C05
:10019B00E5F038FCE433CB8DF0A42CFCE5F03BF818
:1001AB00EE8AF0A42CFCE5F038F8E433CF89F0A408
:1001BB002CFCE5F038CF3400CE89F0A42FFFE5F00E
:1001CB003EFEE433C98DF0A42EFEE5F039CD8AF066
:1001DB00A42FFFE5F03EFEE43DFD33D0E0FB5007DE
:1001EB000BBB000F0202B5EC2CFCEF33FFEE33FE22
:0601FB00ED33FD02028D50
:1002010075F020800E75F010800575F0087D007E78
:10021100007F003392D530D50312032EEC3340100A
:10022100EF33FFEE33FEED33FDEC33FCD5F0ED2281
:0E023100E5F0247EA2D513CC92E7CDCEFF22BD
:10023F00EDD2E7CD33EC3392D524814006E4FFFEB7
:10024F00FDFC22FCE4CFCECDCC24E0501174FF8016
:10025F00EDC3CC13CCCD13CDCE13CECF13CF0470B3
:07026F00F030D5DE02032E82
:10027600E9D2E7C933E833F892D5EDD2E7CD33ECCE
:0702860033FC5002B2D52247
:10028D00EC30E7100FBF000C0EBE00080DBD0004D2
:10029D000BEB6014A2D5EB13FCED92E7FD2274FF7E
:1002AD00FCFDFEFF22E480F8A2D574FF13FC7D80D7
:0302BD00E480EFEB
:1002C000BB010689828A83E0225002E722BBFE023C
:0902D000E32289828A83E493226F
:1002D900BC000BBE0029EF8DF084FFADF022E4CC09
:1002E900F875F008EF2FFFEE33FEEC33FCEE9DECD2
:1002F900984005FCEE9DFE0FD5F0E9E4CEFD22ED18
:10030900F8F5F0EE8420D21CFEADF075F008EF2F61
:10031900FFED33FD4007985006D5F0F222C398FD52
:050329000FD5F0EA22EF
:0E032E00C3E49FFFE49EFEE49DFDE49CFC22E0
:00000001FF
