:040B6F000208000078
:100B3B00D3EF9400EE940040147D6E7C00ED1D709D
:0D0B4B00011CED4C70F7EF1F70E61E80E3FB
:010B5800227A
:0F0B5900758901E4F58CF58AD2AFD2A9D28C222E
:10096B008E128F137C007D641208007D0912081211
:10097B00AA06EA3395E0F9F8C3740C9FFF74FE9A4C
:10098B00FEE499FDE498FCE4FB7A01F9F8120ACA3B
:10099B008E0A8F0BAE12AF137C007D641208007DA4
:1009AB0009120812AA06EA3395E0F9F8C3740C9FF2
:1009BB00FF74FE9AFEE499FDE498FCE4FB7A01F9DE
:1009CB00F8120ACAAE02AF038E0E8F0FAE12AF1320
:1009DB007C007D641208007D09120812EE3395E04D
:1009EB00FDFCEF24D4FFEE34B3FEE43DFDE43CFC10
:1009FB00E4FB7A01F9F8120ACA8E0C8F0DAE12AF16
:100A0B00137C007D641208007D09120812EE3395E9
:100A1B00E0FDFCEF24D4FFEE34B3FEE43DFDE43CFB
:100A2B00FCE4FB7A01F9F8120ACAAE02AF038E108E
:030A3B008F1122F6
:070B68007F5A7E0002096BB9
:03000B00020B0ED7
:100B0E00C0E0E509700EE508700A850B8C850F8A2A
:100B1E00D2A0800E850D8C85118AC2A07508FF7536
:0D0B2E0009FF0509E50970020508D0E03255
:03000000020A3EB3
:0C0A3E00787FE4F6D8FD758113020A856C
:10080000EF8DF0A4A8F0CF8CF0A428CE8DF0A42E0C
:02081000FE22C6
:10081200C2D5EC30E709B2D5E4C39DFDE49CFCEE01
:1008220030E715B2D5E4C39FFFE49EFE120848C329
:10083200E49DFDE49CFC800312084830D507C3E424
:060842009FFFE49EFE2270
:100ACA00C2D5E830E70FB2D5E4C39BFBE49AFAE457
:100ADA0099F9E498F8EC30E717B2D5120B0012082E
:100AEA00D9E4C39BFBE49AFAE499F9E498F8800301
:100AFA001208D930D50DE4C39FFFE49EFEE49DFDA4
:040B0A00E49CFC2249
:100A4A00020B68E493A3F8E493A34003F68001F24F
:100A5A0008DFF48029E493A3F85407240CC8C333AD
:100A6A00C4540F4420C8834004F456800146F6DF7C
:100A7A00E4800B0102040810204080900B6FE47E92
:100A8A00019360BCA3FF543F30E509541FFEE49371
:100A9A00A360010ECF54C025E060A840B8E493A338
:100AAA00FAE493A3F8E493A3C8C582C8CAC583CA63
:100ABA00F0A3C8C582C8CAC583CADFE9DEE780BE1B
:010B73000081
:10084800BC000BBE0029EF8DF084FFADF022E4CC94
:10085800F875F008EF2FFFEE33FEEC33FCEE9DEC5D
:10086800984005FCEE9DFE0FD5F0E9E4CEFD22EDA3
:10087800F8F5F0EE8420D21CFEADF075F008EF2FED
:10088800FFED33FD4007985006D5F0F222C398FDDE
:050898000FD5F0EA227B
:10089D0075F008758200EF2FFFEE33FECD33CDCC12
:1008AD0033CCC58233C5829BED9AEC99E582984095
:1008BD000CF582EE9BFEED9AFDEC99FC0FD5F0D672
:1008CD00E4CEFBE4CDFAE4CCF9A88222B800C1B99C
:1008DD000059BA002DEC8BF084CFCECDFCE5F0CBDA
:1008ED00F97818EF2FFFEE33FEED33FDEC33FCEB13
:1008FD0033FB10D703994004EB99FB0FD8E5E4F9CE
:10090D00FA227818EF2FFFEE33FEED33FDEC33FCBA
:10091D00C933C910D7059BE99A4007EC9BFCE99AAE
:10092D00F90FD8E0E4C9FAE4CCFB2275F010EF2FF3
:10093D00FFEE33FEED33FDCC33CCC833C810D707F3
:10094D009BEC9AE899400AED9BFDEC9AFCE899F82E
:0E095D000FD5F0DAE4CDFBE4CCFAE4C8F922C1
:00000001FF
