:03000000021B8759
:0C1B8700787FE4F6D8FD758107021BCEC4
:101FA700AE071FEE600DE4FCFD0DED70010C4C60FB
:031FB700EF80F6C2
:011FBA002204
:0D1FFD00E4F5E7F5E5F5E675E380F5E4228F
:101F650075E78175E5018FE4EEF5E375E64675E6FF
:071F7500B900AFE2121FFDED
:011F7C002242
:101F4C0075E78175E5028FE4EEF5E3AF058FE27579
:091F5C00E64675E6B900021FFD1E
:101F7D0075E78175E5038FE4EEF5E375E64675E6E5
:051F8D00B900021FFD78
:101E9600D2D1B4E6C8EBD7DCBDF0B6EEA3BA00D417
:101EA600AA00BDC700C9CFB4CEBDF0B6EEA3BA0036
:081EB600CAC1BFA3BA002D0050
:0700030044005A0000000058
:09206B00121C9D12200A02000E55
:10000E00E4900000F0A3F0A3F0A3F0A3F0A3F0900F
:10001E0000121211950000000090001612119500AA
:10002E0000000090001A12119500000000D296D226
:10003E0094D295D2971214AA12200A3095047F01F9
:10004E0080027F003096047E0180027E00EE4FFF1C
:10005E003094047E0180027E00EE4F70030205CBC9
:10006E00900056E0FCA3E0FDA3E0FEA3E0FF9000AD
:10007E000A121189D2AFE47FDC7E05FDFC90005A96
:10008E00E0F8A3E0F9A3E0FAA3E0FBC3121173407A
:10009E00030204CA2096030201B8900056E0FCA3A6
:1000AE00E0FDA3E0FEA3E02401FFE43EFEE43DFDFF
:1000BE00E43CFC90005612118990001AE0FCA3E07B
:1000CE00FDA3E0FEA3E02401FFE43EFEE43DFDE4DB
:1000DE003CFC90001A121189E47BE87A03F9F8903F
:1000EE00001AE0FCA3E0FDA3E0FEA3E0FF121E1445
:1000FE00900000EEF0FAA3EFF0FB7D047F60121C7F
:10010E0013E47B64FAF9F890001AE0FCA3E0FDA377
:10011E00E0FEA3E0FF121E14AB07AA06900000E05B
:10012E00FEA3E0FF7C007D0A1210BDC3EB9FFFEA29
:10013E009EFEA3F0FAA3EFF0FB7D047F67121C1363
:10014E00E47B64FAF9F890001AE0FCA3E0FDA3E06A
:10015E00FEA3E0FF121E14AC00AD01AE02AF03E42D
:10016E007B0AFAF9F8121E14900004EEF0FAA3EFCF
:10017E00F0FB7D047F6E121C13E47B0AFAF9F890F3
:10018E00001AE0FCA3E0FDA3E0FEA3E0FF121E14A4
:10019E00AE02AF03900006EEF0A3EFF07D047F7584
:1001AE00121C137F117E00121DC3209503020294B0
:1001BE00900056E0FCA3E0FDA3E0FEA3E02405FFC3
:1001CE00E43EFEE43DFDE43CFC90005612118990A5
:1001DE000016E0FCA3E0FDA3E0FEA3E02401FFE493
:1001EE003EFEE43DFDE43CFC900016121189E47BDA
:1001FE0064FAF9F8900016E0FCA3E0FDA3E0FEA37C
:10020E00E0FF121E14900000EEF0FAA3EFF0FB7D5B
:10021E00047F44121C13E47B0AFAF9F8900016E0EE
:10022E00FCA3E0FDA3E0FEA3E0FF121E14AB07AAA1
:10023E0006900000E0FEA3E0FF7C007D0A1210BDD8
:10024E00C3EB9FFFEA9EFEA3F0FAA3EFF0FB7D0443
:10025E007F4B121C13E47B0AFAF9F8900016E0FCAF
:10026E00A3E0FDA3E0FEA3E0FF121E14AE02AF0357
:10027E00900004EEF0A3EFF07D047F52121C137F6A
:10028E00117E00121DC32094030203AA900056E0B3
:10029E00FCA3E0FDA3E0FEA3E0240AFFE43EFEE49F
:1002AE003DFDE43CFC900056121189900012E0FCDA
:1002BE00A3E0FDA3E0FEA3E02401FFE43EFEE43D47
:1002CE00FDE43CFC900012121189E47BE87A03F9FC
:1002DE00F8900012E0FCA3E0FDA3E0FEA3E0FF1205
:1002EE001E14900000EEF0FAA3EFF0FB7D047F21C8
:1002FE00121C13E47B64FAF9F8900012E0FCA3E000
:10030E00FDA3E0FEA3E0FF121E14AB07AA069000A9
:10031E0000E0FEA3E0FF7C007D0A1210BDC3EB9F40
:10032E00FFEA9EFEA3F0FAA3EFF0FB7D047F2812F6
:10033E001C13E47B64FAF9F8900012E0FCA3E0FDD4
:10034E00A3E0FEA3E0FF121E14AC00AD01AE02AF9F
:10035E0003E47B0AFAF9F8121E14900004EEF0FA88
:10036E00A3EFF0FB7D047F2F121C13E47B0AFAF936
:10037E00F8900012E0FCA3E0FDA3E0FEA3E0FF1264
:10038E001E14AE02AF03900006EEF0A3EFF07D0454
:10039E007F36121C137F0F7E00121DC3E47B107A72
:1003AE0027F9F8900056E0FCA3E0FDA3E0FEA3E0E1
:1003BE00FF121E14900000EEF0FAA3EFF0FB7D0288
:1003CE007F35121C13E47BE87A03F9F8900056E0AF
:1003DE00FCA3E0FDA3E0FEA3E0FF121E14AB07AAF0
:1003EE0006900000E0FEA3E0FF7C007D0A1210BD27
:1003FE00C3EB9FFFEA9EFEA3F0FAA3EFF0FB7D0294
:10040E007F3D121C13E47B64FAF9F8900056E0FC71
:10041E00A3E0FDA3E0FEA3E0FF121E14AB07AA06A5
:10042E00900000E0FEA3E0FF7C007D641210BDC3CF
:10043E00EB9FFBEA9EFAA3E0FEA3E0FF7D0A1210FB
:10044E00BDC3EB9FFFEA9EFEA3F0FAA3EFF0FB7D88
:10045E00027F45121C13E47B64FAF9F8900056E013
:10046E00FCA3E0FDA3E0FEA3E0FF121E14AC00AD62
:10047E0001AE02AF03E47B0AFAF9F8121E149000E3
:10048E0006EEF0FAA3EFF0FB7D027F4D121C13E493
:10049E007B0AFAF9F8900056E0FCA3E0FDA3E0FE1B
:1004AE00A3E0FF121E14AE02AF03900008EEF0A3FD
:1004BE00EFF07D027F64121C1302008490005A122A
:1004CE00119500000000C2AF7F9F7E867D017C00EB
:1004DE00900056E0F8A3E0F9A3E0FAA3E0FBC31204
:1004EE001173400A90005612119500000000900002
:1004FE000AE0F8A3E0F9A3E0FAA3E0FB900056E0CF
:10050E00FCA3E0FDA3E0FEA3E0C39BFFEE9AFEED8D
:10051E0099FDEC98FC90000E121189E47B64FAF9B7
:10052E00F890000EE0FCA3E0FDA3E0FEA3E0FF12B6
:10053E001E14AB07AA06900000E0FEA3E0FF7C00AD
:10054E007D0A1210BDC3EB9FFFEA9EFEA3F0FAA335
:10055E00EFF0FB7D067F45121C13E47B64FAF9F87D
:10056E0090000EE0FCA3E0FDA3E0FEA3E0FF121E50
:10057E0014AC00AD01AE02AF03E47B0AFAF9F81237
:10058E001E14900004EEF0FAA3EFF0FB7D067F4DF3
:10059E00121C13E47B0AFAF9F890000EE0FCA3E0BB
:1005AE00FDA3E0FEA3E0FF121E14AE02AF03900007
:1005BE0006EEF0A3EFF07D067F64121C1330970356
:1005CE000200469000561211950000000090000E99
:1005DE0012119500000000900012121195000000FB
:1005EE00009000161211950000000090001A1211D2
:1005FE009500000000E47B107A27F9F8900056E091
:10060E00FCA3E0FDA3E0FEA3E0FF121E1490000089
:10061E00EEF0FAA3EFF0FB7D027F35121C13E47BA4
:10062E00E87A03F9F8900056E0FCA3E0FDA3E0FEA3
:10063E00A3E0FF121E14AB07AA06900000E0FEA373
:10064E00E0FF7C007D0A1210BDC3EB9FFFEA9EFE09
:10065E00A3F0FAA3EFF0FB7D027F3D121C13E47BA7
:10066E0064FAF9F8900056E0FCA3E0FDA3E0FEA3C7
:10067E00E0FF121E14AB07AA06900000E0FEA3E0F6
:10068E00FF7C007D641210BDC3EB9FFBEA9EFAA3B4
:10069E00E0FEA3E0FF7D0A1210BDC3EB9FFFEA9EB2
:1006AE00FEA3F0FAA3EFF0FB7D027F45121C13E4CC
:1006BE007B64FAF9F8900056E0FCA3E0FDA3E0FE9F
:1006CE00A3E0FF121E14AC00AD01AE02AF03E47B3B
:1006DE000AFAF9F8121E14900006EEF0FAA3EFF0E3
:1006EE00FB7D027F4D121C13E47B0AFAF9F8900091
:1006FE0056E0FCA3E0FDA3E0FEA3E0FF121E14AE45
:10070E0002AF03900008EEF0A3EFF07D027F6412BB
:10071E001C13E47BE87A03F9F890000EE0FCA3E0EA
:10072E00FDA3E0FEA3E0FF121E14900000EEF0FA0F
:10073E00A3EFF0FB7D067F3D121C13E47B64FAF9F8
:10074E00F890000EE0FCA3E0FDA3E0FEA3E0FF1294
:10075E001E14AB07AA06900000E0FEA3E0FF7C008B
:10076E007D0A1210BDC3EB9FFFEA9EFEA3F0FAA313
:10077E00EFF0FB7D067F45121C13E47B64FAF9F85B
:10078E0090000EE0FCA3E0FDA3E0FEA3E0FF121E2E
:10079E0014AC00AD01AE02AF03E47B0AFAF9F81215
:1007AE001E14900004EEF0FAA3EFF0FB7D067F4DD1
:1007BE00121C13E47B0AFAF9F890000EE0FCA3E099
:1007CE00FDA3E0FEA3E0FF121E14AE02AF039000E5
:1007DE0006EEF0A3EFF07D067F64121C13E47BE8B7
:1007EE007A03F9F8900012E0FCA3E0FDA3E0FEA36B
:1007FE00E0FF121E14900000EEF0FAA3EFF0FB7D66
:10080E00047F21121C13E47B64FAF9F8900012E0C5
:10081E00FCA3E0FDA3E0FEA3E0FF121E14AB07AAAB
:10082E0006900000E0FEA3E0FF7C007D0A1210BDE2
:10083E00C3EB9FFFEA9EFEA3F0FAA3EFF0FB7D044D
:10084E007F28121C13E47B64FAF9F8900012E0FC86
:10085E00A3E0FDA3E0FEA3E0FF121E14AC00AD0169
:10086E00AE02AF03E47B0AFAF9F8121E14900004EC
:10087E00EEF0FAA3EFF0FB7D047F2F121C13E47B46
:10088E000AFAF9F8900012E0FCA3E0FDA3E0FEA343
:10089E00E0FF121E14AE02AF03900006EEF0A3EFBF
:1008AE00F07D047F36121C13E47B64FAF9F8900095
:1008BE0016E0FCA3E0FDA3E0FEA3E0FF121E1490E1
:1008CE000000EEF0FAA3EFF0FB7D047F44121C1340
:1008DE00E47B0AFAF9F8900016E0FCA3E0FDA3E031
:1008EE00FEA3E0FF121E14AB07AA06900000E0FE66
:1008FE00A3E0FF7C007D0A1210BDC3EB9FFFEA9EB2
:10090E00FEA3F0FAA3EFF0FB7D047F4B121C13E461
:10091E007B0AFAF9F8900016E0FCA3E0FDA3E0FED6
:10092E00A3E0FF121E14AE02AF03900004EEF0A37C
:10093E00EFF07D047F52121C13E47BE87A03F9F882
:10094E0090001AE0FCA3E0FDA3E0FEA3E0FF121E60
:10095E0014900000EEF0FAA3EFF0FB7D047F60121E
:10096E001C13E47B64FAF9F890001AE0FCA3E0FD96
:10097E00A3E0FEA3E0FF121E14AB07AA0690000030
:10098E00E0FEA3E0FF7C007D0A1210BDC3EB9FFFCB
:10099E00EA9EFEA3F0FAA3EFF0FB7D047F67121C24
:1009AE0013E47B64FAF9F890001AE0FCA3E0FDA3CF
:1009BE00E0FEA3E0FF121E14AC00AD01AE02AF03C9
:1009CE00E47B0AFAF9F8121E14900004EEF0FAA372
:1009DE00EFF0FB7D047F6E121C13E47B0AFAF9F82C
:1009EE0090001AE0FCA3E0FDA3E0FEA3E0FF121EC0
:1009FE0014AE02AF03900006EEF0A3EFF07D047F7D
:070A0E0075121C13020046E3
:0D200A00758AFF758C4BD2A9D28CC2AF2213
:03000B00021D07CC
:101D0700C0E0C0F0C083C082C0D075D000C000C0A2
:101D170001C002C004C005C006C007758AFF758CE4
:101D27004C90005AE0FCA3E0FDA3E0FEA3E0FFE433
:101D3700FAF9F8EF2401FFEA3EFEE93DFDE83CFC35
:101D470090005A121189D007D006D005D004D002CE
:0F1D5700D001D000D0D0D082D083D0F0D0E032F5
:1014AA00900056121195000000007BFF7A1E799673
:1014BA00E4FDFF1216AA7BFF7A1E79A57D017F55EE
:1014CA001216AA7BFF7A1E79A87D017F6E1216AAD0
:1014DA007BFF7A1E79AB7D03E4FF1216AA7BFF7AA3
:1014EA001E79A57D037F551216AA7BFF7A1E79A85D
:1014FA007D037F6E1216AA7BFF7A1E79B67D02E4FF
:10150A00FF1216AA7BFF7A1E79BC7D027F3C121A53
:10151A00D77BFF7A1E79BC7D027F57121AD7E4FB6C
:10152A00FA7D047F21121C13E4FBFA7D047F281242
:10153A001C13E4FBFA7D047F2F121C13E4FBFA7DD3
:10154A00047F36121C13E4FBFA7D047F44121C1339
:10155A00E4FBFA7D047F4B121C13E4FBFA7D047F43
:10156A0052121C13E4FBFA7D047F60121C13E4FB85
:10157A00FA7D047F67121C13E4FBFA7D047F6E1266
:10158A001C13E4FBFA7D047F75121C13E47B107AAA
:10159A0027F9F8900056E0FCA3E0FDA3E0FEA3E0E3
:1015AA00FF121E1490001EEEF0A3EFF090001EE052
:1015BA00FAA3E0FB7D027F35121C13E47BE87A0371
:1015CA00F9F8900056E0FCA3E0FDA3E0FEA3E0FFDB
:1015DA00121E14AB07AA0690001EE0FEA3E0FF7CD1
:1015EA00007D0A1210BDC3EB9FFFEA9EA3F0A3EF92
:1015FA00F0900020E0FAA3E0FB7D027F3D121C136D
:10160A00E47B64FAF9F8900056E0FCA3E0FDA3E05D
:10161A00FEA3E0FF121E14AB07AA0690001EE0FE0E
:10162A00A3E0FF7C007D641210BDC3EB9FFBEA9E22
:10163A00FAA3E0FEA3E0FF7D0A1210BDC3EB9FFFF1
:10164A00EA9EFEAB07FA7D027F45121C13E47B6417
:10165A00FAF9F8900056E0FCA3E0FDA3E0FEA3E04F
:10166A00FF121E14AC00AD01AE02AF03E47B0AFA0E
:10167A00F9F8121E14AB07AA067D027F4D121C133D
:10168A00E47B0AFAF9F8900056E0FCA3E0FDA3E037
:10169A00FEA3E0FF121E14AE027D027F64021C1339
:101DC300E4FCFD7B0AFAF9F8121124803BE4FFFEE0
:101DD300FDFC90001EE0F8A3E0F9A3E0FAA3E0FB0A
:101DE300D3121173402A7F6EDFFE90001EE0FCA326
:101DF300E0FDA3E0FEA3E0FFEF24FFFFEE34FFFED0
:101E0300ED34FFFDEC34FFFC90001E12118980BD00
:011E130022AC
:100A15000000000000000000002F0000000007009B
:100A2500070000147F147F1400242A7F2A12006215
:100A350064081323003649552250000005030000C1
:100A450000001C224100000041221C000014083E49
:100A550008140008083E0808000000A0600000080F
:100A65000808080800006060000000201008040263
:100A7500003E5149453E0000427F40000042615121
:100A85004946002141454B31001814127F100027BB
:100A950045454539003C4A4949300001710905037E
:100AA50000364949493600064949291E00003636AF
:100AB5000000000056360000000814224100001412
:100AC50014141414000041221408000201510906EF
:100AD50000324959513E007C1211127C007F494970
:100AE5004936003E41414122007F4141221C007FA1
:100AF50049494941007F09090901003E4149497AAF
:100B0500007F0808087F0000417F41000020404128
:100B15003F01007F08142241007F40404040007F94
:100B2500020C027F007F0408107F003E4141413ED8
:100B3500007F09090906003E4151215E007F091920
:100B450029460046494949310001017F0101003F1D
:100B55004040403F001F2040201F003F4038403F9D
:100B65000063140814630007087008070061514901
:100B7500454300007F4141000002040810200000A9
:100B850041417F0000040201020400404040404012
:100B9500000001020400002054545478007F4844AA
:100BA500443800384444442000384444487F0038E1
:100BB5005454541800087E0901020018A4A4A47C0A
:100BC500007F080404780000447D400000408084D4
:100BD5007D00007F102844000000417F4000007C1C
:100BE50004180478007C0804047800384444443828
:100BF50000FC242424180018242418FC007C080474
:100C0500040800485454542000043F444020003C4C
:100C15004040207C001C2040201C003C4030403CD3
:100C2500004428102844001CA0A0A07C0044645463
:100C35004C44141414141414D2D1B4E6C8EBD7DC04
:100C4500BDF0B6EEA3BAC9CFB4CEB4E6C8EBBDF0DD
:100C5500B6EEA3BAD4AABDC7CAC1BFA3BA000000E5
:100C6500E484848484848484FC00000000001F20C4
:100C7500404040404040403820000008088868183F
:100C8500262828A868240000000403FF0000044467
:100C95007F040404020000000000048478E00000E2
:100CA500000000004040201804030000030C183029
:100CB5002000000000F0222C20102C22F000000063
:100CC500002018037E42464E427A0B081000008031
:100CD5008040A098868890A040C080000040444C89
:100CE50074447F44645C4C404000009068DACC78E2
:100CF50008F4249C2424F20000087C47447D824F9C
:100D0500201F102067000000000000000000000008
:100D15000000000000003332000000000000000069
:100D25000000000000000000FE4040404040000080
:100D35000040404040403F404040404020000000CF
:100D450004F810C0302EE0202020100000003F8065
:100D55004120100E010E1060400000080888681838
:100D6500262828A868240000000403FF0000044486
:100D75007F040404020000000000048478E0000001
:100D8500000000004040201804030000030C183048
:100D9500200000808040A098868890A040C08000F8
:100DA5000040444C74447F44645C4C4040000090D7
:100DB50068DACC7808F4249C2424F20000087C47E7
:100DC500447D824F201F10206700000000000000B6
:100DD50000000000000000000000333200000000A9
:100DE5000000000000000040404444C44444C444A2
:100DF50044404000008040201C0300007F404040EC
:100E05007C00000040F02C2A28F8282020E0000073
:100E15000040201F0505057F0545457F00000000B2
:100E2500AC60FE68E4E0FC2220E0100000014C57B5
:100E3500341CA740231C3F604000004040FE646412
:100E450064646464DE4060000000406F6B6B7F6B20
:100E55006B6B5F40400000000000000000000000D8
:100E65000000000000003332000000000000000018
:100E7500000000000000000000000000000000006D
:100E85000000000000F80000000000000033300002
:100E9500000000100C06100C060000000000000009
:100EA500000040C07840C0784000043F04043F047F
:100EB5000400007088FC08300000001820FF211E87
:100EC5000000F008F000E018000000211C031E21BE
:100ED5001E0000F00888700000001E212324192739
:100EE500211010160E000000000000000000000098
:100EF5000000000000E018040200000000071820B0
:100F0500400000020418E00000000040201807001F
:100F15000000404080F0804040000202010F0102C5
:100F25000200000000F0000000000101011F0101A6
:100F35000100000000000000000080B0700000000B
:100F45000000000000000000000000010101010197
:100F5500010100000000000000000030300000002A
:100F65000000000000008060180400601806010001
:100F7500000000E010080810E000000F102020100D
:100F85000F00001010F8000000000020203F202076
:100F9500000000700808088870000030282422210D
:100FA50030000030088888483000001820202011C3
:100FB5000E000000C02010F8000000070424243FA4
:100FC500240000F80888880808000019212020114D
:100FD5000E0000E0108888180000000F1120201175
:100FE5000E0000380808C83808000000003F00005F
:100FF50000000070880808887000001C222121224A
:101005001C0000E010080810E00000003122221149
:101015000F00000000C0C0000000000000303000DC
:10102500000000000080000000000000806000005B
:101035000000000080402010080000010204081094
:1010450020004040404040404000040404040404A3
:101055000400000810204080000000201008040251
:101065000100007048080808F00000000030360153
:02107500000079
:101E580075F006EBA42415F582E5F0340AF583E560
:0C1E6800822CF582E43583F583E493FFBF
:101E74007E08D293C290AD061EED6015EF30E704E4
:101E8400D2918002C291D29000C290EF25E0FF80EF
:011E9400E568
:011E9500222A
:101F09007E08C293C290AD061EED6015EF30E7045E
:101F1900D2918002C291D29000C290EF25E0FF8059
:011F2900E5D2
:011F2A002294
:081EE500900022E0FFA3E0FDE4
:101EED00AC07ED24B0FF121F09EC54F0C4540F449D
:0C1EFD0010FF121F09EC540FFF021F0918
:021EBE00AC076F
:101EC000E4FBEB24B0FF121F09E4FF121F097F108F
:101ED000121F09E4FAAF04121E740AEAB480F60B6A
:041EE000EBB408DE79
:011EE40022DB
:101F9200AC07EC540FFF121F09AF04EFC4540F2417
:051FA20010FF021F0901
:0C201700AC077F20121F09AF04021F0954
:101FBB00AC05AB077F21121F09AF03121F09AF043A
:031FCB00021F09E9
:101FCE00AC05AB077F22121F09AF03121F09AF0426
:031FDE00021F09D6
:07207400EF4440FF021F09C9
:0C202300AC077F81121F09AF04021F09E7
:0E1FE100AC077F8D121F09EC4410FF021F0990
:07207B00EF44A0FF021F0962
:07208200EF44A4FF021F0957
:07208900EF44A6FF021F094E
:0C202F00AC077FA8121F09AF04021F09B4
:07209000EF44AEFF021F093F
:07209700EF44B0FF021F0936
:07209E00EF44C0FF021F091F
:0C203B00AC077FD3121F09AF04021F097D
:0C204700AC077FD5121F09AF04021F096F
:0C205300AC077FD9121F09AF04021F095F
:0E1FEF00AC077FDA121F09EC4402FF021F0943
:0C205F00AC077FDB121F09AF04021F0951
:0520A5007FE3021F09AA
:101C9D00D290C292E4FF000FEFB464FAD292E4FF47
:101CAD001220907F801220477F3F12202FE4FF12D9
:101CBD00203BE4FF1220747F04121FE17F021220EB
:101CCD00177F0112207B7F0812209E7F10121FEFBD
:101CDD007FCF1220237FF11220537F4012205FE42B
:101CED00FF122082E4FF1220897F01122090E4FF71
:091CFD00121EBEE4FDFF121EEDF3
:011D060022BA
:061F2B00FDA3E02430FBE1
:101F3100EB24E0FBEFD3947A4003E4FF0D121EED96
:0A1F4100E4FC121E580CECB406F884
:011F4B002273
:101D6600900066EFF0A3EDF0A3EBF0A3EAF0A3E991
:011D7600F07C
:101D7700E4A3F0900068E0FBA3E0FAA3E0F9A3E096
:101D8700F582758300121090603124E0FB900066A5
:101D9700E0D3947A4006E4F0A3E004F090006612E2
:101DA7001EE8E4FC121E580CECB406F8900066E03E
:0B1DB7002406F090006BE004F080B800
:011DC20022FE
:0F1C1300900023EAF0A3EBF0A905900022EFF078
:101C2200121EEDE4FC900024E02410FF900023E05B
:101C32003400FEEFC4F8540FC868FFEEC454F048F5
:101C4200FEEC7A002FFFEA3EFE74772FF582740EC7
:101C52003E121E6F0CECB408CC900022E0FFE904A7
:101C6200FD121EEDE4FC900024E02410FF900023FE
:101C7200E03400FEEFC4F8540FC868FFEEC454F01D
:101C820048FEEC7A002FFFEA3EFE747F2FF5827445
:0A1C92000E3E121E6F0CECB408CCDD
:011C9C002225
:101AD700900022EFF0A3EDF0A3EBF0A3EAF0A3E967
:011AE700F00E
:101AE800900023E025E0F0E4900027F0900024E047
:101AF800FBA3E0FAA3E0F9A3E0F5827583001210D6
:101B080090607B24E0FB900022E0D394784007E4C7
:101B1800F0A3E02402F0900022121EE8E4FCEB752A
:101B2800F010A4FFEC7583002FFFE58335F0FE74F9
:101B3800772FF582740E3E121E6F0CECB408DF90FE
:101B48000022E0FFA3E004FD121EEDE4FCEB75F0BB
:101B580010A4FFEC7583002FFFE58335F0FE747F3A
:101B68002FF582740E3E121E6F0CECB408DF900045
:0E1B780022E02408F0900027E004F0021AF4A6
:011B8600223C
:1016AA00900022EFF0A3EDF0A3EBF0A3EAF0A3E998
:0116BA00F03F
:1016BB00900023E025E0F0E4900028F0900024E077
:1016CB00FBA3E0FAA3E0F9900028E0F58275830014
:1016DB00121090700302182EE4900027F09000294E
:1016EB00F0A304F0900027E0900C3D93FFD3947F80
:1016FB004052900024E0FBA3E0FAA3E0F99000280D
:10170B00E0FEF582758300121090FDEF6D702CEEEC
:10171B002401FFE433FE8F828E83121090FF900022
:10172B0027E0FE900C3E93B50711EE75F00EA4FF6B
:10173B00900029E5F0F0A3EFF08009900027E0245A
:10174B0002F080A0900022E0D394724007E4F0A353
:10175B00E02402F0900029E07004A3E064016078BB
:10176B00121EE5E4900027F0900029E0FEA3E02490
:10177B0063F582740C3E121E6F90002AE004F07029
:10178B0006900029E004F0900027E004F0E0C394F9
:10179B000E40D5900022E0FFA3E004FD121EEDE405
:1017AB00900027F0900029E0FEA3E02463F58274FB
:1017BB000C3E121E6F90002AE004F0700690002978
:1017CB00E004F0900027E004F0E0C3940E40D590C5
:1017DB000028E02402F08041121EE5E4900027F07F
:1017EB00E4FF121E74900027E004F0E0C3940E4057
:1017FB00EF900022E0FFA3E004FD121EEDE4900049
:10180B0027F0E4FF121E74900027E004F0E0C3946D
:10181B000E40EF900028E004F0900022E0240EF040
:03182B000216C7DB
:01182E002297
:101A1E0090004DEFF0A3EDF0A3EBF0A3EAF0A3E9F5
:011A2E00F0C7
:101A2F00E4900055F090004FE0FBA3E0FAA3E0F93B
:101A3F00900055E0F5827583001210907003021A22
:101A4F00D6D3947F4042900055E0FFF58275830016
:101A5F00121090900052F08F82758300A312109095
:101A6F00900053F0E4A3F090004DE0FFA3E0FD7B66
:101A7F00017A0079521216AA90004DE0240EF090D0
:101A8F000055E02402F0809D90004FE0FBA3E0FAA8
:101A9F00A3E0F9900055E0F5827583001210909045
:101AAF000052F0E4A3F090004DE0FFA3E0FD7B01B6
:101ABF007A007952121AD790004DE02408F0900066
:071ACF0055E004F0021A3497
:011AD60022ED
:0A19610090005EEFF0A3EDF0AA0382
:10196B00C3EA6480948090005EE0FFA3E0FD501317
:10197B007B2D121F31EAFF3395E0FEC3E49FFFE49A
:10198B009E800B7B2B121F31AF02EF3395E0900043
:10199B0064F0A3EFF0900064E0FEA3E0FF7C007D19
:1019AB00641210CFAB07AA06900064E0FEA3E0FF21
:1019BB007C007D641210CF7E007F0ACFCDCFCECCC2
:1019CB00CE1210CF900060EEF0A3EFF0900064E029
:1019DB00FEA3E0FF7C007D0A1210CF900062ECF0BA
:1019EB00A3EDF090005EE02406FFA3E0FDAE03EE56
:1019FB002430FB121F3190005EE0240CFFA3E0A308
:101A0B00121F2B90005EE02412FFA3E090006212E5
:021A1B001F2B7F
:011A1D0022A6
:0E182F0090003FEFF0A3EDF0A3EAF0A3EBF082
:10183D00C3EA6480948090003FE0FFA3E0FD501860
:10184D007B2D121F31900041E0FEA3E0FFC3E49F0A
:10185D00FFE49E90004B80107B2B121F31900041B6
:10186D00E0FFA3E090004BCFF0A3EFF090004BE032
:10187D00FEA3E0FF7C277D101210CFAB07AA0690C8
:10188D00004BE0FEA3E0FF7C277D101210CF7E03FE
:10189D007FE8CFCDCFCECCCE1210CF900049EEF059
:1018AD00A3EFF0A3E0FEA3E0FF7C037DE81210CFD1
:1018BD007E007F64CFCDCFCECCCE1210CF90004323
:1018CD00EEF0A3EFF090004BE0FEA3E0FF7C007D77
:1018DD00641210CF7E007F0ACFCDCFCECCCE1210AA
:1018ED00CF900045EEF0A3EFF090004BE0FEA3E0AB
:1018FD00FF7C007D0A1210CF900047ECF0A3EDF0B5
:10190D0090003FE02406FFA3E0FDAE03EE2430FB84
:10191D00121F3190003FE0240CFFA3E0FD90004921
:10192D00121F2C90003FE02412FFA3E0FD90004316
:10193D00121F2C90003FE02418FFA3E0FD900045FE
:10194D00121F2C90003FE0241EFFA3E0FD900047E6
:03195D00121F2C2A
:011960002264
:0B12940090002BEBF0A3EAF0A3E9F0C0
:10129F00EDAE047803CEC313CE13D8F9FF90003907
:1012AF00EEF0A3EFF0ED5407FFA3E4F0A3EFF0E4AB
:1012BF00900033F0A3F0900039E0FEA3E0FF900020
:1012CF0033E0FCA3E0FDC39FEC9E40030213BCE49C
:1012DF00FF121EED900033E0FEA3E07803C333CE80
:1012EF0033CED8F9FF90003DEEF0A3EFF0E490007D
:1012FF0035F0A3F0900030E0FEA3E0FFC39000367E
:10130F00E09F900035E09E40030213A8E490003266
:10131F00F0900037F0A3F0900037E0FEA3E0FFC39A
:10132F009408EE94005056900032E0C313F09000F2
:10133F003EE02FFF90003DE03EFE900030E0FCA32A
:10134F00E0FD1210BD90002BE0FBA3E0FAA3E02F0D
:10135F00F9EA3EFA900035E0FEA3E029F9EA3EFAF9
:10136F00121077B40107900032E04480F0900038FB
:10137F00E004F070A2900037E004F0809A90003201
:10138F00E0FF121E74900036E004F06003021303B6
:10139F00900035E004F0021303900034E004F06095
:1013AF00030212C5900033E004F00212C59000331F
:1013BF00A3E0FDE4FF121EED900033E0FEA3E07802
:1013CF0003C333CE33CED8F9FF90003DEEF0A3EF39
:1013DF00F0E4900035F0A3F0900030E0FEA3E0FFC2
:1013EF00C3900036E09F900035E09E40030214A9A1
:1013FF00E4900032F0900037F0A3F090003BE0FE55
:10140F00A3E0FF900037E0FCA3E0FDC39FEC9E50EC
:10141F0056900032E0C313F090003EE02DFF900095
:10142F003DE03CFE900030E0FCA3E0FD1210BD90CB
:10143F00002BE0FBA3E0FAA3E02FF9EA3EFA9000BD
:10144F0035E0FEA3E029F9EA3EFA121077B401075E
:10145F00900032E04480F0900038E004F0709C90EF
:10146F000037E004F08094900032E0FF90003BA33F
:10147F00E0FEC374089EFEEFA806088002C313D8CF
:10148F00FCFF900032F0121E74900036E004F070F2
:0A149F0006900035E004F00213E7A8
:0114A9002220
:101B930002206BE493A3F8E493A34003F68001F2DD
:101BA30008DFF48029E493A3F85407240CC8C33353
:101BB300C4540F4420C8834004F456800146F6DF22
:101BC300E4800B0102040810204080900003E47EAF
:101BD300019360BCA3FF543F30E509541FFEE49317
:101BE300A360010ECF54C025E060A840B8E493A3DE
:101BF300FAE493A3F8E493A3C8C582C8CAC583CA09
:101C0300F0A3C8C582C8CAC583CADFE9DEE780BEC0
:01000A0000F5
:10107700BB010689828A83E0225002E722BBFE0277
:09108700E32289828A83E49322AA
:10109000BB010CE58229F582E5833AF583E0225015
:1010A00006E92582F8E622BBFE06E92582F8E2225F
:0D10B000E58229F582E5833AF583E4932279
:1010BD00EF8DF0A4A8F0CF8CF0A428CE8DF0A42E47
:0210CD00FE2201
:1010CF00BC000BBE0029EF8DF084FFADF022E4CC05
:1010DF00F875F008EF2FFFEE33FEEC33FCEE9DECCE
:1010EF00984005FCEE9DFE0FD5F0E9E4CEFD22ED14
:1010FF00F8F5F0EE8420D21CFEADF075F008EF2F5E
:10110F00FFED33FD4007985006D5F0F222C398FD4E
:05111F000FD5F0EA22EB
:10112400E88FF0A4CC8BF0A42CFCE98EF0A42CFC6A
:101134008AF0EDA42CFCEA8EF0A4CDA8F08BF0A4E8
:101144002DCC3825F0FDE98FF0A42CCD35F0FCEB47
:101154008EF0A4FEA9F0EB8FF0A4CFC5F02ECD390C
:0F116400FEE43CFCEAA42DCE35F0FDE43CFC2279
:101E1400C2D5E830E70FB2D5E4C39BFBE49AFAE4F9
:101E240099F9E498F8EC30E717B2D5121E4A121269
:101E340002E4C39BFBE49AFAE499F9E498F880037A
:101E440012120230D50DE4C39FFFE49EFEE49DFD13
:041E5400E49CFC22EC
:10117300EB9FF5F0EA9E42F0E99D42F0EC6480C8F3
:0611830064809845F02293
:0C118900ECF0A3EDF0A3EEF0A3EFF022D9
:10119500A8828583F0D083D0821211AC1211AC12D3
:1011A50011AC1211ACE473E493A3C583C5F0C583F8
:1011B500C8C582C8F0A3C583C5F0C583C8C582C8A4
:0111C5002207
:1011C60075F008758200EF2FFFEE33FECD33CDCCE0
:1011D60033CCC58233C5829BED9AEC99E582984063
:1011E6000CF582EE9BFEED9AFDEC99FC0FD5F0D640
:1011F600E4CEFBE4CDFAE4CCF9A88222B800C1B96A
:101206000059BA002DEC8BF084CFCECDFCE5F0CBA7
:10121600F97818EF2FFFEE33FEED33FDEC33FCEBE0
:1012260033FB10D703994004EB99FB0FD8E5E4F99B
:10123600FA227818EF2FFFEE33FEED33FDEC33FC88
:10124600C933C910D7059BE99A4007EC9BFCE99A7C
:10125600F90FD8E0E4C9FAE4CCFB2275F010EF2FC1
:10126600FFEE33FEED33FDCC33CCC833C810D707C1
:101276009BEC9AE899400AED9BFDEC9AFCE899F8FC
:0E1286000FD5F0DAE4CDFBE4CCFAE4C8F9228F
:00000001FF
